:020000040800F2
:10000000680400209D010008870D0008870C000887
:10001000850D0008A90200086D0F0008000000000F
:100020000000000000000000000000008B0D000830
:10003000AB02000800000000890D00088D0D0008CB
:10004000B7010008B7010008B7010008B7010008B0
:10005000B7010008B7010008B7010008B7010008A0
:10006000B7010008B7010008B7010008B701000890
:10007000B7010008B7010008B7010008B701000880
:10008000B7010008B7010008B7010008B701000870
:10009000B7010008B7010008B7010008B701000860
:1000A000B7010008B7010008B7010008B701000850
:1000B000B7010008B7010008B7010008B701000840
:1000C000B7010008B7010008B7010008B701000830
:1000D000B7010008B7010008B7010008B701000820
:1000E000B7010008B7010008B7010008B701000810
:1000F000B7010008B7010008B7010008B701000800
:10010000B7010008B7010008B7010008B7010008EF
:10011000B7010008B7010008B7010008B7010008DF
:10012000B7010008B7010008B7010008B7010008CF
:10013000B7010008B7010008B7010008B7010008BF
:10014000B7010008B7010008B7010008B7010008AF
:10015000B7010008B7010008B7010008B70100089F
:10016000B7010008B7010008B7010008B70100088F
:10017000B7010008B7010008B7010008000000003F
:10018000B7010008B7010008DFF80CD000F07AF8DA
:1001900000480047AD0F000868040020064880476B
:1001A00006480047FEE7FEE7FEE7FEE7FEE7FEE75C
:1001B000FEE7FEE7FEE7FEE7190E000889010008EA
:1001C0002DE9F05F0546002092469B46884606468C
:1001D000814640241BE0284641464746224600F01F
:1001E00041F853465A46C01A914110D31146184659
:1001F000224600F028F82D1A67EB01084F462246E8
:100200000120002100F01FF817EB00094E41201ECD
:10021000A4F10104DFDC484631462A464346BDE8E6
:10022000F09FD2B201E000F8012B491EFBD27047CB
:100230000022F6E710B513460A4604461946FFF7B2
:10024000F0FF204610BD202A04DB203A00FA02F11C
:10025000002070479140C2F1200320FA03F31943B4
:1002600090407047202A04DB203A21FA02F0002156
:10027000704721FA02F3D040C2F1200291400843B6
:1002800019467047064C074D06E0E06840F0010350
:1002900094E8070098471034AC42F6D3FFF778FF94
:1002A000F00F000810100008FEE7704770B5B3F5B6
:1002B000804F05D06FF0704140F82210002070BDD3
:1002C00050F82240084B8E891C40D1E9003543EAA2
:1002D00005138D6889692D0245EA06452B430B43BA
:1002E000234340F82230E9E70000F0CFF0B50C6876
:1002F00050F82430114A1340D1E90125D1E90367B0
:100300002A433E4332434E6932438E693243CE69BB
:1003100032430E6A32434E6A32438E6A3243CE6AA9
:100320003243CE6B096B32430A431A43082D01D185
:1003300042F0400240F824200020F0BD8000F0FF91
:1003400030B500EB820250688D8900F04043D1E95E
:10035000000440EA04108C68240244EA0544204367
:100360000C8A074D05EB045420430C7D6D0105EB11
:10037000046489692043084318435060002030BD5D
:100380000000F0FF70B5044600F030F90546601C2F
:1003900002D004480078044400F028F9401BA04231
:1003A000FAD370BD08000020F0B587B0142168466C
:1003B000FFF73EFF1A48016800292FD10121016093
:1003C00018480024016841F001010160006802251D
:1003D00000F00100059041F20100CDE9000502AAFC
:1003E00003260C2782E8D00069460F4800F022F867
:1003F0004FF68070CDE9000502AA694682E8D00078
:100400000A4800F017F84CF23370CDE9000502AA53
:10041000694682E8D000064800F00CF807B0F0BD4D
:10042000000000203838024000180240001002404E
:10043000000C02402DE9F84F00224FF0010803257F
:100440004FF00F0E0B6808FA02F42340A3426ED15E
:100450004E68012E05D0022E03D0112E01D0122E8F
:1004600012D186684FEA420C05FA0CF7BE43CF68FA
:1004700007FA0CF7374387604668A6430C79C4F344
:100480000014944034434460C668570005FA07FCE2
:100490008C6826EA0C06BC403443C4604C68022CCD
:1004A00001D0122C13D1D40800EB8404A346D4F855
:1004B000209054074FEAD46A0EFA0AF629EA060990
:1004C0000E6906FA0AF646EA0906CBF820600668C5
:1004D0000C7926EA0C0604F00304BC4034430460A3
:1004E0004C68E40065D5364C266846F480462660A4
:1004F000246822F0030604F480440094314C344410
:10050000A446D4F808489607370F0EFA07F6B44306
:100510002D4EB04201D1002624E02C4EB04201D134
:1005200001261FE02A4EB04202D102261AE040E026
:10053000284EB04201D1032614E0274EB04201D12B
:1005400004260FE0254EB04201D105260AE0244ED4
:10055000B04201D1062605E0224EB04201D1072665
:1005600000E00826BE402643CCF808681E4E3468DA
:100570004F689C43FF0300D51C4334601A4C241D74
:1005800026684F689E43BF0300D51E432660164E63
:10059000083634684F689C43FF0200D51C43346022
:1005A000114E0C3634684F689C43BF0200D51C4383
:1005B0003460521C102AFFF445AFBDE8F88F0000EC
:1005C0004438024000300140000002400004024074
:1005D00000080240000C02400010024000140240DB
:1005E00000180240001C0240003C014001488068A5
:1005F000704700000800002002488168027811441A
:1006000081607047080000200B4810B5016841F474
:1006100000710160016841F480610160016841F48A
:1006200080710160032000F061F8002000F006F8FE
:1006300000F024F8002010BD003C024070B50D4DC4
:1006400004464FF47A712878B1FBF0F00A49096842
:10065000B1FBF0F000F003FB48B9102C07D20022E8
:100660002146501E00F022F800206C6070BD012071
:1006700070BD000008000020140000200A4808B5E2
:10068000016841F480410160006800F480400090FE
:100690000548001F016841F080510160006800F0CA
:1006A0008050009008BD000044380240F0B40E4B6A
:1006B0001B680C46C3F30223C3F10705042D00D9C0
:1006C0000425191D072901D2002300E0DB1E0126A5
:1006D00006FA05F1491E214099409E40761E1640BB
:1006E0003143F0BC00F043BC0CED00E0064900F0E3
:1006F000070208684FF6FF03184040EA0220034A49
:1007000010430860704700000CED00E00000FA059F
:100710002DE9F0470E46050065D0DFF81481D8F8C2
:100720000000F7B200F00F00B04207D288F8007066
:10073000D8F8000000F00F00B04254D128683D4CBA
:10074000810712D5400703D5206840F4E0502060AF
:100750002878000703D5206840F4604020602068B6
:10076000A96820F0F000084320602878C0072DD049
:10077000304968680839012812D0022813D00328AC
:1007800011D00968890700292DDA216821F00301B9
:1007900001432160FFF72AFF814641F2883A0EE0CB
:1007A00009688903EFE709688901ECE7FFF71EFF95
:1007B000A0EB0901514502D90320BDE8F08720686C
:1007C000696800F00C00B0EB810FEFD1D8F8001091
:1007D000404601F00F01B14207D90770006800F0F0
:1007E0000F00B04201D00120E7E72878400705D587
:1007F0002068E96820F4E05008432060287800076A
:1008000006D52068296920F4604040EAC1002060D4
:1008100000F018F82168084AC1F30311515CC84080
:100820000649086006480068FFF708FF0020C4E793
:10083000003C024008380240E00F0008140000208D
:100840000C000020154810B5006810F00C02144888
:1008500013D01449042A0FD0082A0ED10F4C241F9C
:100860002268236802F03F025B0207D52068C0F3CC
:100870008810A0FB010106E0084610BD2168C1F305
:100880008811A1FB00010023FFF79AFC2168C1F346
:100890000141491C4900B0FBF1F010BD083802408D
:1008A0000024F40040787D012DE9F84F040076D053
:1008B0002078DFF838A3CE4DC00749D0DAF8001011
:1008C0005046C1F38101012908D00068C0F38100BE
:1008D00002280AD1281D0068400206D52868800336
:1008E00036D560680028E2D032E06068B0F5803F1D
:1008F00010D0B0F5A02F286810D020F480302860E8
:10090000286820F4802028606068A0B1FFF76EFEA0
:1009100006460CE0286840F48030F4E740F480207C
:100920002860F7E7FFF762FE801B642873D8286809
:100930008003F7D50CE0FFF759FE064605E000BF3F
:10094000FFF754FE801B6428F0D828688003F7D492
:100950002078DFF8A08280074FF000093ED5DAF852
:100960000010504611F00C0F09D00068C0F3810050
:1009700002280BD19D48001F0068400206D4286859
:10098000800715D5E068012809D111E0E068B8B109
:100990000120C8F80000FFF729FE064605E020E127
:1009A000FFF724FE801B0228C0D828688007F7D5EF
:1009B0002868216920F0F80040EAC10028600DE0B5
:1009C000C8F80090FFF712FE064604E0FFF70EFE9F
:1009D000801B02281FD828688007F7D420780007DA
:1009E00022D5824E844861696C3671B10121016063
:1009F000FFF7FCFD074604E0FFF7F8FDC01B0228E7
:100A000009D830688007F7D50EE0C0F80090FFF7EE
:100A1000EDFD074605E082E0FFF7E8FDC01B022878
:100A20007DD830688007F7D42078400768D5DFF894
:100A3000BCB100270BF1380BDBF80000C0000BD471
:100A4000DBF8001041F08051CBF80010DBF800001B
:100A5000012700F080500090684E3068C00510D427
:100A6000306840F480703060FFF7C0FD009005E012
:100A7000FFF7BCFD0099401A022850D83068C00525
:100A8000F6D55A4EA068683601280FD00528306880
:100A900010D020F001003060306820F00400306099
:100AA000A068B8B1FFF7A2FD00900FE0306840F0F9
:100AB0000100F4E740F004003060F7E7FFF796FD2F
:100AC0000099411A41F28830814266D83068800727
:100AD000F4D50EE0FFF78AFD009007E0FFF786FDF2
:100AE0000099411A41F28830814256D83068800717
:100AF000F4D42FB1DBF8001021F08051CBF80010B6
:100B0000A069D0B3DAF800205146C2F38102022A6C
:100B10004AD00228484607D0C8F8600000E03CE010
:100B2000FFF764FD04463BE04746C8F86000FFF766
:100B30005DFD064605E000BFFFF758FD801B02285B
:100B40002BD828688001F7D4D4E907010843A16AAB
:100B50002B4A490802EB0141626A41EA82110843CB
:100B600094F82C1040EA01612048001F0160012028
:100B70003866FFF73BFD044605E034E0FFF736FD3D
:100B8000001B022809D828688001F7D52BE000BF98
:100B9000FFF72CFD001B022802D90320BDE8F88FC7
:100BA00028688001F4D41EE00128F7D00868E269C3
:100BB00000F48001914214D1226A00F03F01914279
:100BC0000FD147F6C071626A0140914209D1A26A11
:100BD00000F44031914204D1E16A00F07060884233
:100BE00001D00120DAE70020D8E7000008380240F1
:100BF0000038024000004742800E4742007000402B
:100C00000000FFFF70B515460E46040003D094F8AF
:100C1000490010B107E0012070BD002084F84800B1
:100C2000204600F01AF804F108012068FFF75EFB87
:100C30003146A2682068FFF783FBD4E90102294608
:100C4000236BFFF733FBA168206850F8212042F0A6
:100C5000010240F82120002070BDFFF7A5BB10B5B0
:100C6000401EB0F1807F01D3012010BD4FF0E02481
:100C700060610F21601700F07AF90020A061072061
:100C80002061002010BDFEE770B54FF0D8452B2441
:100C90002C800B4C060A2680C0B22080080A2080D7
:100CA000C8B220802A202880100A2080D0B220805C
:100CB000180A2080D8B220802C20288070BD000027
:100CC0000008006C10B588B01C216846FFF7B0FA28
:100CD00013484FF02041062201601249C0E9011279
:100CE00000211023C160C0E904138161C1611C02AD
:100CF0000162C0E90914C162016341638163416417
:100D00000F20CDE90020CDE9022111200493CDE987
:100D10000501002269460248FFF774FF08B010BDC4
:100D200018000020040100A0154808B5016841F032
:100D300004010160016801F004010091016841F0C3
:100D400080010160016801F080010091016841F0BB
:100D500040010160016801F040010091016841F02B
:100D600010010160016801F010010091016841F07B
:100D700008010160006800F00800009008BD000054
:100D800030380240FEE7704770477047FFF734BCC9
:100D900030B593B030216846FFF74AFA14210CA809
:100DA000FFF746FA1A480025016841F080510160BA
:100DB000006800F0805011901648016841F48041AD
:100DC00001600068022400F480401190012000902E
:100DD000000401908001CDE90640192008904FF4ED
:100DE000A870CDE9090404200B906846FFF75CFD6C
:100DF0000CA90F2081E831004FF4A0500F90E002C1
:100E0000109005210CA8FFF783FC13B030BD000043
:100E1000403802400070004002494FF00060086016
:100E20007047000008ED00E02DE9FF4F8346554272
:100E3000002602208A4600EB450400BF0AEB0600AC
:100E400001B2ABEB050000B20F468146039A00F0F9
:100E50002BF80BEB050000B239468046039A00F0F0
:100E600023F8AAEB060007B240463946039A00F081
:100E70001BF839464846039A00F016F82046B4425B
:100E800008DC761C00EB4604641CF54202D1A84243
:100E900000DC0020A84203DD6D1C04EB4504641C4B
:100EA000002DCBDDBDE8FF8F10B50B4614461A466A
:100EB0000146FFF7E9FE0148048010BD0008006C00
:100EC00070B54FF0D844012020806420FFF75AFA13
:100ED000112020806420FFF755FA28202080C020B0
:100EE0002080214D26202880C120208011202880AC
:100EF000C5202080352028803E202880C7202080E3
:100F0000BE20288036202080482028803A2020805B
:100F100055202880B1202080002028801F20288094
:100F2000002240F23F1340F2DF111046FFF7ACFE03
:100F300034202080B720208007202880B620208001
:100F40000A202880822028802720288000202880CE
:100F5000292020806420FFF715FA2C202080BDE88E
:100F600070400520FFF70EBA0008006CFEE7090785
:100F7000090E002804DB00F1E02080F8001470471F
:100F800000F00F0000F1E02080F8141D704702E02F
:100F900008C8121F08C1002AFAD170477047002004
:100FA00001E001C1121F002AFBD17047FFF72CFBA3
:100FB000FFF7EEFEFFF7B8FEFFF784FEC820FFF74D
:100FC000E1F9FFF77DFF054CC820FFF7DBF90A22A6
:100FD000234611461046FFF727FFF5E700F8FFFF0D
:100FE00000000000000000000102030406070809D9
:100FF0001010000800000020180000008E0F0008EC
:101000002810000818000020500400009E0F00085F
:1010100000000000000000000100000010000000BF
:08102000000000000024F400B0
:040000050800018965
:00000001FF
